{
  "contractName": "HelloWorld",
  "abi": [
    {
      "constant": true,
      "inputs": [],
      "name": "balance",
      "outputs": [
        {
          "name": "",
          "type": "uint256"
        }
      ],
      "payable": false,
      "stateMutability": "view",
      "type": "function"
    }
  ],
  "bytecode": "0x6080604052348015600f57600080fd5b50609e8061001e6000396000f300608060405260043610603f576000357c0100000000000000000000000000000000000000000000000000000000900463ffffffff168063b69ef8a8146044575b600080fd5b348015604f57600080fd5b506056606c565b6040518082815260200191505060405180910390f35b600054815600a165627a7a72305820d8683caa145133e91ea631ecb90c0900b8ae0fa85475cb236f7fa972957738bd0029",
  "source": "pragma solidity ^0.4.4;\nimport \"./HelloWorld.sol\";\n\n\n\n\n\ncontract HelloWorld{\nuint public balance;\n // address public owner\n// mapping (address => uint) balance \n\n    //constructor\n    //runs once upon contract creation\n\n\n // Function HelloWorld(){\n   //  owner = msg.sender;\n// balance =1000;\n  //  }\n\n    // function transfer(address _to , unit _value) returns (bool success){\n        //  if(balance[msg.sender] < _value){\n            //  return false\n       //  } \n         // balance [msg.sender] -= _value;\n    // balance[_to] += _value;\n    // return true;\n    //  }\n   // function getBalance(address _user) constant returns (uint balance){\n      //  return balance[_user];\n   // }\n}",
  "sourcePath": "/Users/anujdubey/Desktop/Kitpay/19 aug/kitpay-18073292-html/MetaCoin/contracts/HelloWorld.sol",
  "compiler": {
    "name": "solc",
    "version": "0.4.24+commit.e67f0147.Emscripten.clang"
  },
  "schemaVersion": "2.0.1",
  "updatedAt": "2018-08-21T05:58:51.970Z"
}